:020000040800F2
:100000001804002011050008D9040008DB040008CA
:10001000DD040008DF040008E1040008000000001F
:10002000000000000000000000000000E3040008E1
:10003000E504000800000000E7040008E9040008E7
:100040003105000835050008390500083D050008A0
:10005000410500084505000873020008490500082D
:10006000950200084D0500085105000855050008D7
:10007000590500085D0500086105000865050008D0
:1000800069050008000000006D0500087105000802
:1000900075050008790500087D0500088105000840
:1000A00085050008890500088D05000891050008F0
:1000B00095050008010200080D02000899050008D6
:1000C0009D050008A1050008A5050008A905000870
:1000D000AD050008B1050008B5050008B905000820
:1000E000BD050008C1050008C5050008C9050008D0
:1000F000CD050008D1050008D50500080000000066
:1001000000000000D905000800000000DD0500081F
:10011000E105000800000000E5050008E905000809
:10012000ED050008F1050008F5050008F9050008CF
:10013000FD050008000000000000000001060008A6
:100140000506000809060008000000000000000085
:10015000000000000000000000000000000000009F
:100160000000000000000000000000000D06000874
:100170001106000800000000000000000000000060
:10018000000000001506000800000000000000004C
:10019000000000000000000000000000000000005F
:1001A0000000000000000000190600081D060008FD
:1001B00021060008250600082906000800000000A6
:1001C000000000002D0600080000000000000000F4
:1001D0003106000835060008010007D4012200F0AE
:1001E0001F01734B8A40400943F82020704780B5B7
:1001F00000F067F800F076F800F09AF862B6FEE7D3
:100200006C480168490849000160C9E0F8B56A4DC9
:100210006A4C687840B160694008400060612168BC
:1002200041F0010121601EE0287868B92068644F20
:10023000400840002060012600F0A5F8B862386848
:1002400040F00100386005E000266E60206840F054
:10025000010020602E70616921F004016161206855
:1002600040F00400206057490868400840000860DA
:10027000F1BD524801684908490001600122524914
:10028000086880F4807008604B4841684270491CDF
:10029000416069E04949086820F004000860484866
:1002A0000268520852000260416A090C0904416266
:1002B00000214548026882F4807202603E48417025
:1002C00052E04249086840F0020008604048026875
:1002D00022F440320260016841F4803101607047CD
:1002E000000000003948026842F0010202604FF04D
:1002F0009042116821F0330111604269354942F0A2
:100300000102426134480A6802400A600B682B48C7
:100310000B60026842F005020260816841F005014D
:1003200081604022224802604FF480710160704772
:1003300010B52A49086840F00600086041F2873489
:1003400027480462012101601D20FFF745FF254871
:10035000C4624FF4166181620122C260082101600B
:100360001E20BDE8104037E700BF1E48416A090C57
:10037000090441620269520852000261016841F0B9
:100380000101016070470C494968012943F67F600B
:1003900005DB4FF47A504900B0FBF1F0401E704786
:1003A0000949086880F48070086070470000000008
:1003B00000E100E0100400400C00002000040140B7
:1003C0000004004010080040140400484C10024093
:1003D0000004004808000140F8F8FFFF58100240F0
:1003E0000C0400400008004010B5034A7A4408326B
:1003F000024C7C44A41D03E068000000780000006B
:1004000004E01168101D114488470246A242F8D149
:1004100010BD0EE002684368024408305FEAC37C06
:1004200044BF4B445B1E52F804CB43F804CB091F76
:10043000F9D150F8041B0029ECD170474EF68851D1
:10044000CEF20001086840F470000860BFF34F8FDF
:10045000BFF36F8F4FF00170E1EE100A704700009C
:10046000B3FFFFFF14000000940000000000002014
:100470000000000000F00DF8002801D0FFF7B4FFE5
:10048000AFF300800020AFF30080FFF7B0FE00F074
:1004900002F80120704700F001B800000746384616
:1004A00000F002F8FBE7000080B5AFF30080024ADD
:1004B00011001820ABBEFBE72600020005480146EC
:1004C00003B4684680F30988AFF30080FFF7B6FFF6
:1004D000FFF7D0FFA5EDF5FEFEE7FEE7FEE7FEE73E
:1004E000FEE770477047704700F000B8024A116895
:1004F0009068411811607047000000200000000063
:1005000010000000010000000000000000000000DA
:10051000014880470148004721050008BD04000844
:100520000249086840F470000860704788ED00E0F8
:10053000FFF7FEBFFFF7FEBFFFF7FEBFFFF7FEBFEF
:10054000FFF7FEBFFFF7FEBFFFF7FEBFFFF7FEBFDF
:10055000FFF7FEBFFFF7FEBFFFF7FEBFFFF7FEBFCF
:10056000FFF7FEBFFFF7FEBFFFF7FEBFFFF7FEBFBF
:10057000FFF7FEBFFFF7FEBFFFF7FEBFFFF7FEBFAF
:10058000FFF7FEBFFFF7FEBFFFF7FEBFFFF7FEBF9F
:10059000FFF7FEBFFFF7FEBFFFF7FEBFFFF7FEBF8F
:1005A000FFF7FEBFFFF7FEBFFFF7FEBFFFF7FEBF7F
:1005B000FFF7FEBFFFF7FEBFFFF7FEBFFFF7FEBF6F
:1005C000FFF7FEBFFFF7FEBFFFF7FEBFFFF7FEBF5F
:1005D000FFF7FEBFFFF7FEBFFFF7FEBFFFF7FEBF4F
:1005E000FFF7FEBFFFF7FEBFFFF7FEBFFFF7FEBF3F
:1005F000FFF7FEBFFFF7FEBFFFF7FEBFFFF7FEBF2F
:10060000FFF7FEBFFFF7FEBFFFF7FEBFFFF7FEBF1E
:10061000FFF7FEBFFFF7FEBFFFF7FEBFFFF7FEBF0E
:10062000FFF7FEBFFFF7FEBFFFF7FEBFFFF7FEBFFE
:08063000FFF7FEBFFFF7FEBF5C
:04000005080004BD2E
:00000001FF
