:020000040800F2
:100000001004002075030008510300085303000882
:1000100055030008570300085903000800000000BA
:100020000000000000000000000000005B0300086A
:100030005D030008000000005F0300086103000882
:10004000A1030008A5030008A9030008AD030008E8
:10005000B1030008B5030008B9030008BD03000898
:10006000C1030008C5030008C9030008CD03000848
:10007000D1030008D5030008D9030008DD030008F8
:10008000E103000800000000E5030008E9030008A0
:10009000ED030008F1030008F5030008F903000868
:1000A000FD03000801040008050400080904000815
:1000B0000D040008330200081104000815040008AC
:1000C000190400081D040008210400082504000884
:1000D000290400082D040008310400083504000834
:1000E000390400083D0400084104000845040008E4
:1000F000490400084D0400085104000800000000F5
:100100000000000055040008000000005904000829
:100110005D04000800000000610400086504000898
:10012000690400086D0400087104000875040008E3
:100130007904000800000000000000007D040008B1
:100140008104000885040008000000000000000091
:10015000000000000000000000000000000000009F
:1001600000000000000000000000000089040008FA
:100170008D040008000000000000000000000000E6
:1001800000000000910400080000000000000000D2
:10019000000000000000000000000000000000005F
:1001A0000000000000000000950400089904000809
:1001B0009D040008A1040008A50400080000000038
:1001C00000000000A904000800000000000000007A
:1001D000AD040008B10400081B48026842F08072B8
:1001E00002604FF48032C16C41F00201C1641749D2
:1001F0000A6040F2E732836D43F002038365012316
:10020000816D41F004018165816D41F008018165D6
:1002100043F67F610E488262C16203600122C260C0
:100220004FF000510B480160704780B5FFF7D4FFD5
:10023000FEE709480268002101600849086880F467
:100240008070086070470000001002400004004801
:100250000004004000E100E01004004014040048E5
:1002600010B5034A7A440832024C7C44A41D03E0D2
:10027000680000007800000004E01168101D1144BF
:1002800088470246A242F8D110BD0EE002684368DA
:10029000024408305FEAC37C44BF4B445B1E52F803
:1002A00004CB43F804CB091FF9D150F8041B0029F3
:1002B000ECD170474EF68851CEF20001086840F448
:1002C00070000860BFF34F8FBFF36F8F4FF0017066
:1002D000E1EE100A70470000B3FFFFFF0C000000C2
:1002E000B4000000000000200000000000F00DF845
:1002F000002801D0FFF7B4FFAFF300800020AFF378
:100300000080FFF792FF00F002F80120704700F034
:1003100001B800000746384600F002F8FBE700008D
:1003200080B5AFF30080024A11001820ABBEFBE796
:10033000260002000548014603B4684680F3098898
:10034000AFF30080FFF7B6FFFFF7D0FFA5EDF5FE96
:10035000FEE7FEE7FEE7FEE7FEE7704770477047FF
:1003600000F000B8024A11689068411811607047A7
:10037000000000200148804701480047850300082D
:10038000350300080249086840F4700008607047AF
:1003900088ED00E0000000001000000001000000F7
:1003A000FFF7FEBFFFF7FEBFFFF7FEBFFFF7FEBF81
:1003B000FFF7FEBFFFF7FEBFFFF7FEBFFFF7FEBF71
:1003C000FFF7FEBFFFF7FEBFFFF7FEBFFFF7FEBF61
:1003D000FFF7FEBFFFF7FEBFFFF7FEBFFFF7FEBF51
:1003E000FFF7FEBFFFF7FEBFFFF7FEBFFFF7FEBF41
:1003F000FFF7FEBFFFF7FEBFFFF7FEBFFFF7FEBF31
:10040000FFF7FEBFFFF7FEBFFFF7FEBFFFF7FEBF20
:10041000FFF7FEBFFFF7FEBFFFF7FEBFFFF7FEBF10
:10042000FFF7FEBFFFF7FEBFFFF7FEBFFFF7FEBF00
:10043000FFF7FEBFFFF7FEBFFFF7FEBFFFF7FEBFF0
:10044000FFF7FEBFFFF7FEBFFFF7FEBFFFF7FEBFE0
:10045000FFF7FEBFFFF7FEBFFFF7FEBFFFF7FEBFD0
:10046000FFF7FEBFFFF7FEBFFFF7FEBFFFF7FEBFC0
:10047000FFF7FEBFFFF7FEBFFFF7FEBFFFF7FEBFB0
:10048000FFF7FEBFFFF7FEBFFFF7FEBFFFF7FEBFA0
:10049000FFF7FEBFFFF7FEBFFFF7FEBFFFF7FEBF90
:1004A000FFF7FEBFFFF7FEBFFFF7FEBFFFF7FEBF80
:0404B000FFF7FEBF95
:0400000508000335B7
:00000001FF
