:020000040800F2
:1000000018040020610500083D0500083F050008B0
:1000100041050008430500084505000800000000F0
:10002000000000000000000000000000470500087C
:1000300049050008000000004B0500084D050008B8
:100040008105000885050008890500088D05000860
:1000500091050008950500086B0200089905000845
:10006000B50200089D050008A1050008A5050008C7
:10007000A9050008AD050008B1050008B505000890
:10008000B905000800000000BD050008C105000812
:10009000C5050008C9050008CD050008D105000800
:1000A000D5050008D9050008DD050008E1050008B0
:1000B000E5050008010200080D020008E905000836
:1000C000ED050008F1050008F5050008F905000830
:1000D000FD050008010600080506000809060008DD
:1000E0000D0600081106000815060008190600088C
:1000F0001D06000821060008250600080000000073
:100100000000000029060008000000002D0600087D
:100110003106000800000000350600083906000816
:100120003D0600084106000845060008490600088B
:100130004D06000800000000000000005106000805
:1001400055060008590600080000000000000000E5
:10015000000000000000000000000000000000009F
:100160000000000000000000000000005D06000824
:100170006106000800000000000000000000000010
:1001800000000000650600080000000000000000FC
:10019000000000000000000000000000000000005F
:1001A0000000000000000000690600086D0600085D
:1001B00071060008750600087906000800000000B6
:1001C000000000007D0600080000000000000000A4
:1001D0008106000885060008010007D4012200F00E
:1001E0001F01864B8A40400943F82020704780B5A4
:1001F00000F098F800F0A6F800F0CAF862B6FEE742
:100200007F480168490849000160F0E07D487E4A66
:10021000016849084900016000207C49C87088686D
:1002200040B94870536943F001035361106840F0CE
:10023000010015E0022814D1087828B1136843F0B2
:1002400001031360002000E0012000234B608B704D
:100250000870536943F004035361106840F00400D0
:1002600010604FF0FF328A6070476849487800BBE1
:10027000012265484A7003685B085B0003604269BD
:1002800042F001024261624A106880F4807010609E
:1002900000228A604A68C878521C00B101224A6074
:1002A0005C480269520852000261016841F0010194
:1002B0000160704755498878002800D0704710B514
:1002C00001228A70544C504A136823F004031360CF
:1002D000506940F004005061C87838B923685B0861
:1002E0005B002360606A000C0004606202230878EF
:1002F0008B6040B9116849084900116000F06AF844
:1003000000F062F804E04249086880F480700860F8
:1003100040480269520852000261016841F001013F
:10032000016010BD3D49086840F0020008603C488B
:10033000026822F440320260016841F480310160B9
:10034000704700003548026842F0010202604FF039
:100350009042116821F0330111604269314942F045
:100360000102426130480A6802400A600B68264870
:100370000B60026842F005020260816841F00501ED
:10038000816040221D4802604FF480710160704717
:1003900010B52649086840F00600086041F287342D
:1003A00023480462012101601D20FFF715FF194851
:1003B000C4624FF4166181620122C26008210160AB
:1003C0001E20BDE8104007E7A062206840F0010051
:1003D000206070470D494968012943F67F6005DBBD
:1003E0004FF47A504900B0FBF1F0401E70470849C5
:1003F000086880F4807008607047000000E100E049
:1004000010040040100800400004014000000020DB
:100410001404004800080040000400404C10024052
:100420000004004808000140F8F8FFFF581002409F
:100430000C04004010B5034A7A440832024C7C4454
:10044000A41D03E0680000007800000004E01168CB
:10045000101D114488470246A242F8D110BD0EE09B
:1004600002684368024408305FEAC37C44BF4B44DF
:100470005B1E52F804CB43F804CB091FF9D150F8A6
:10048000041B0029ECD170474EF68851CEF20001D2
:10049000086840F470000860BFF34F8FBFF36F8FA0
:1004A0004FF00170E1EE100A70470000B3FFFFFF4C
:1004B0001800000070000000000000200000000094
:1004C00000F00DF8002801D0FFF7B4FFAFF3008073
:1004D0000020AFF30080FFF78AFE00F002F8012051
:1004E000704700F001B800000746384600F002F8F7
:1004F000FBE7000080B5AFF30080024A110018202E
:10050000ABBEFBE7260002000548014603B468467F
:1005100080F30988AFF30080FFF7B6FFFFF7D0FF45
:10052000A5EDF5FE00000001000000000000000045
:10053000000000001000000001000000FEE7FEE7E0
:10054000FEE7FEE7FEE770477047704700F000B82F
:10055000024A116890684118116070470C00002031
:100560000148804701480047710500080905000857
:100570000249086840F470000860704788ED00E0A8
:10058000FFF7FEBFFFF7FEBFFFF7FEBFFFF7FEBF9F
:10059000FFF7FEBFFFF7FEBFFFF7FEBFFFF7FEBF8F
:1005A000FFF7FEBFFFF7FEBFFFF7FEBFFFF7FEBF7F
:1005B000FFF7FEBFFFF7FEBFFFF7FEBFFFF7FEBF6F
:1005C000FFF7FEBFFFF7FEBFFFF7FEBFFFF7FEBF5F
:1005D000FFF7FEBFFFF7FEBFFFF7FEBFFFF7FEBF4F
:1005E000FFF7FEBFFFF7FEBFFFF7FEBFFFF7FEBF3F
:1005F000FFF7FEBFFFF7FEBFFFF7FEBFFFF7FEBF2F
:10060000FFF7FEBFFFF7FEBFFFF7FEBFFFF7FEBF1E
:10061000FFF7FEBFFFF7FEBFFFF7FEBFFFF7FEBF0E
:10062000FFF7FEBFFFF7FEBFFFF7FEBFFFF7FEBFFE
:10063000FFF7FEBFFFF7FEBFFFF7FEBFFFF7FEBFEE
:10064000FFF7FEBFFFF7FEBFFFF7FEBFFFF7FEBFDE
:10065000FFF7FEBFFFF7FEBFFFF7FEBFFFF7FEBFCE
:10066000FFF7FEBFFFF7FEBFFFF7FEBFFFF7FEBFBE
:10067000FFF7FEBFFFF7FEBFFFF7FEBFFFF7FEBFAE
:08068000FFF7FEBFFFF7FEBF0C
:0400000508000509E1
:00000001FF
