:020000040800F2
:1000000018040020510500082D0500082F050008E0
:100010003105000833050008350500080000000020
:10002000000000000000000000000000370500088C
:1000300039050008000000003B0500083D050008E8
:100040007105000875050008790500087D050008A0
:100050008105000885050008670200088905000879
:10006000AB0200088D050008910500089505000801
:10007000990500089D050008A1050008A5050008D0
:10008000A905000800000000AD050008B105000842
:10009000B5050008B9050008BD050008C105000840
:1000A000C5050008C9050008CD050008D1050008F0
:1000B000D5050008010200080D020008D905000856
:1000C000DD050008E1050008E5050008E905000870
:1000D000ED050008F1050008F5050008F905000820
:1000E000FD050008010600080506000809060008CD
:1000F0000D060008110600081506000800000000A3
:100100000000000019060008000000001D0600089D
:100110002106000800000000250600082906000846
:100120002D060008310600083506000839060008CB
:100130003D06000800000000000000004106000825
:100140004506000849060008000000000000000005
:10015000000000000000000000000000000000009F
:100160000000000000000000000000004D06000834
:100170005106000800000000000000000000000020
:10018000000000005506000800000000000000000C
:10019000000000000000000000000000000000005F
:1001A0000000000000000000590600085D0600087D
:1001B00061060008650600086906000800000000E6
:1001C000000000006D0600080000000000000000B4
:1001D0007106000875060008010007D4012200F02E
:1001E0001F01824B8A40400943F82020704780B5A8
:1001F00000F090F800F09EF800F0C2F862B6FEE75A
:100200007B480168490849000160E8E079497A4A79
:1002100008684008400008607849886840B948701C
:10022000536943F001035361106840F0010015E089
:10023000022814D1087828B1136843F00103136031
:10024000002000E0012000234B608B700870536990
:1002500043F004035361106840F0040010604FF055
:10026000FF328A60704765494878E8B901226248E0
:100270004A7003685B085B000360426942F0010258
:1002800042615F4A106880F4807010600022486804
:100290008A60401C48605B48026952085200026153
:1002A000016841F0010101607047544988780028D5
:1002B00000D0704710B501228A70534C4E4A136823
:1002C00023F004031360506940F004005061236878
:1002D0005B085B002360606A494B000C00046062AD
:1002E000186880F480701860022308788B6038B931
:1002F000116849084900116000F064F800F05CF8EA
:1003000040480269520852000261016841F001014F
:10031000016010BD3D49086840F0020008603C489B
:10032000026822F440320260016841F480310160C9
:10033000704700003548026842F0010202604FF049
:100340009042116821F0330111604269314942F055
:100350000102426130480A6802400A600B68264880
:100360000B60026842F005020260816841F00501FD
:10037000816040221D4802604FF480710160704727
:1003800010B52649086840F00600086041F287343D
:1003900023480462012101601D20FFF71DFF194859
:1003A000C4624FF4486181620122C2600821016089
:1003B0001E20BDE810400FE7A062206840F0010059
:1003C000206070470D494968012943F67F6005DBCD
:1003D0004FF47A504900B0FBF1F0401E70470849D5
:1003E000086880F4807008607047000000E100E059
:1003F0001004004010080040000401400C000020E0
:100400001404004800080040000400404C10024062
:100410000004004808000140F8F8FFFF58100240AF
:100420000C04004010B5034A7A440832024C7C4464
:10043000A41D03E0680000007800000004E01168DB
:10044000101D114488470246A242F8D110BD0EE0AB
:1004500002684368024408305FEAC37C44BF4B44EF
:100460005B1E52F804CB43F804CB091FF9D150F8B6
:10047000041B0029ECD170474EF68851CEF20001E2
:10048000086840F470000860BFF34F8FBFF36F8FB0
:100490004FF00170E1EE100A70470000B3FFFFFF5C
:1004A00018000000700000000000002000000000A4
:1004B00000F00DF8002801D0FFF7B4FFAFF3008083
:1004C0000020AFF30080FFF792FE00F002F8012059
:1004D000704700F001B800000746384600F002F807
:1004E000FBE7000080B5AFF30080024A110018203E
:1004F000ABBEFBE7260002000548014603B4684690
:1005000080F30988AFF30080FFF7B6FFFFF7D0FF55
:10051000A5EDF5FE00000000100000000100000045
:10052000000000000000000000000000FEE7FEE701
:10053000FEE7FEE7FEE770477047704700F000B83F
:10054000024A11689068411811607047000000204D
:10055000014880470148004761050008F904000888
:100560000249086840F470000860704788ED00E0B8
:10057000FFF7FEBFFFF7FEBFFFF7FEBFFFF7FEBFAF
:10058000FFF7FEBFFFF7FEBFFFF7FEBFFFF7FEBF9F
:10059000FFF7FEBFFFF7FEBFFFF7FEBFFFF7FEBF8F
:1005A000FFF7FEBFFFF7FEBFFFF7FEBFFFF7FEBF7F
:1005B000FFF7FEBFFFF7FEBFFFF7FEBFFFF7FEBF6F
:1005C000FFF7FEBFFFF7FEBFFFF7FEBFFFF7FEBF5F
:1005D000FFF7FEBFFFF7FEBFFFF7FEBFFFF7FEBF4F
:1005E000FFF7FEBFFFF7FEBFFFF7FEBFFFF7FEBF3F
:1005F000FFF7FEBFFFF7FEBFFFF7FEBFFFF7FEBF2F
:10060000FFF7FEBFFFF7FEBFFFF7FEBFFFF7FEBF1E
:10061000FFF7FEBFFFF7FEBFFFF7FEBFFFF7FEBF0E
:10062000FFF7FEBFFFF7FEBFFFF7FEBFFFF7FEBFFE
:10063000FFF7FEBFFFF7FEBFFFF7FEBFFFF7FEBFEE
:10064000FFF7FEBFFFF7FEBFFFF7FEBFFFF7FEBFDE
:10065000FFF7FEBFFFF7FEBFFFF7FEBFFFF7FEBFCE
:10066000FFF7FEBFFFF7FEBFFFF7FEBFFFF7FEBFBE
:08067000FFF7FEBFFFF7FEBF1C
:04000005080004F9F2
:00000001FF
