:020000040800F2
:100000001004002079040008550400085704000873
:10001000590400085B0400085D04000800000000AB
:100020000000000000000000000000005F04000865
:100030006104000800000000630400086504000873
:10004000A5040008A9040008AD040008B1040008D4
:10005000B5040008B904000811020008BD04000836
:10006000C10400081B020008C5040008C9040008F8
:10007000CD040008D1040008D5040008D904000804
:10008000DD04000800000000E1040008E5040008A9
:10009000E9040008ED040008F1040008F504000874
:1000A000F9040008FD040008010500080505000822
:1000B00009050008F7010008FB0100080D0500080C
:1000C0001105000815050008190500081D050008A0
:1000D0002105000825050008290500082D05000850
:1000E0003105000835050008390500083D05000800
:1000F000410500084505000849050008000000000A
:10010000000000004D050008000000005105000837
:100110005505000800000000590500085D050008AD
:100120006105000865050008690500086D050008FF
:1001300071050008000000000000000075050008BF
:10014000790500087D05000800000000000000009F
:10015000000000000000000000000000000000009F
:100160000000000000000000000000008105000801
:1001700085050008000000000000000000000000ED
:1001800000000000890500080000000000000000D9
:10019000000000000000000000000000000000005F
:1001A00000000000000000008D0500089105000817
:1001B00095050008990500089D050008000000004D
:1001C00000000000A1050008000000000000000081
:1001D000A5050008A9050008010007D4012200F0C8
:1001E0001F01514B8A40400943F82020704780B5D9
:1001F00000F018F8FEE74D4800E04D480168490856
:10020000490001604B49086880F4807008607047BD
:100210004948016841F00101F3E74748016841F0AE
:100220000801EEE710B5454CE06C40F00100E064D9
:100230004FF09041E06C40F00200E064086820F06C
:10024000C3000860216841F080712160206E3C4944
:1002500040F0010020660A683A4802400A600B68D4
:1002600039480B60026842F009020260816841F07F
:10027000090181600620FFF7AFFF0920FFF7ACFFFF
:10028000E06C40F00200E0643048026822F4403242
:100290000260016841F48031016000F007F800F06D
:1002A0001BF800F02EF862B610BD0000284908685F
:1002B00040F00200086040F2E7322648826241F2D4
:1002C000DF51C1620123C360082202604FF0005178
:1002D00015480160704700001D49086840F004009F
:1002E000086040F2E7321C48826243F67F61C162D7
:1002F0000123C360082202604FF080410A48016078
:1003000070471649086840F48030086040F2E732D0
:10031000134882624BF67F31C1620122C26008211C
:100320000160182058E7000000E100E010040040E0
:10033000100800401404004814040140001002405A
:1003400008000140F88FFFFF00040140000400484E
:1003500058100240000400400008004060100240B5
:100360000040014010B5034A7A440832024C7C44F4
:10037000A41D03E0680000007800000004E011689C
:10038000101D114488470246A242F8D110BD0EE06C
:1003900002684368024408305FEAC37C44BF4B44B0
:1003A0005B1E52F804CB43F804CB091FF9D150F877
:1003B000041B0029ECD170474EF68851CEF20001A3
:1003C000086840F470000860BFF34F8FBFF36F8F71
:1003D0004FF00170E1EE100A70470000B3FFFFFF1D
:1003E0000C000000B400000000000020000000002D
:1003F00000F00DF8002801D0FFF7B4FFAFF3008044
:100400000020AFF30080FFF7F2FE00F002F80120B9
:10041000704700F001B800000746384600F002F8C7
:10042000FBE7000080B5AFF30080024A11001820FE
:10043000ABBEFBE7260002000548014603B4684650
:1004400080F30988AFF30080FFF7B6FFFFF7D0FF16
:10045000A5EDF5FEFEE7FEE7FEE7FEE7FEE77047E7
:100460007047704700F000B8024A11689068411860
:100470001160704700000020014880470148004794
:1004800089040008390400080249086840F4700033
:100490000860704788ED00E00000000010000000D8
:1004A00001000000FFF7FEBFFFF7FEBFFFF7FEBF32
:1004B000FFF7FEBFFFF7FEBFFFF7FEBFFFF7FEBF70
:1004C000FFF7FEBFFFF7FEBFFFF7FEBFFFF7FEBF60
:1004D000FFF7FEBFFFF7FEBFFFF7FEBFFFF7FEBF50
:1004E000FFF7FEBFFFF7FEBFFFF7FEBFFFF7FEBF40
:1004F000FFF7FEBFFFF7FEBFFFF7FEBFFFF7FEBF30
:10050000FFF7FEBFFFF7FEBFFFF7FEBFFFF7FEBF1F
:10051000FFF7FEBFFFF7FEBFFFF7FEBFFFF7FEBF0F
:10052000FFF7FEBFFFF7FEBFFFF7FEBFFFF7FEBFFF
:10053000FFF7FEBFFFF7FEBFFFF7FEBFFFF7FEBFEF
:10054000FFF7FEBFFFF7FEBFFFF7FEBFFFF7FEBFDF
:10055000FFF7FEBFFFF7FEBFFFF7FEBFFFF7FEBFCF
:10056000FFF7FEBFFFF7FEBFFFF7FEBFFFF7FEBFBF
:10057000FFF7FEBFFFF7FEBFFFF7FEBFFFF7FEBFAF
:10058000FFF7FEBFFFF7FEBFFFF7FEBFFFF7FEBF9F
:10059000FFF7FEBFFFF7FEBFFFF7FEBFFFF7FEBF8F
:0C05A000FFF7FEBFFFF7FEBFFFF7FEBF36
:0400000508000439B2
:00000001FF
