:020000040800F2
:100000002004002069050008450500084705000890
:10001000490500084B0500084D05000800000000D8
:100020000000000000000000000000004F05000874
:1000300051050008000000005305000855050008A0
:10004000890500088D050008910500089505000840
:10005000990500089D0500088D020008A10500080B
:10006000BB020008A5050008A9050008AD050008A9
:10007000B1050008B5050008B9050008BD05000870
:10008000C105000800000000C5050008C9050008FA
:10009000CD050008D1050008D5050008D9050008E0
:1000A000DD050008E1050008E5050008E905000890
:1000B000ED050008050200081D020008F105000812
:1000C000F5050008F9050008FD050008010600080F
:1000D00005060008090600080D06000811060008BC
:1000E00015060008190600081D060008210600086C
:1000F00025060008290600082D060008000000005B
:10010000000000003106000800000000350600086D
:1001100039060008000000003D06000841060008FE
:1001200045060008490600084D060008510600086B
:1001300055060008000000000000000059060008F5
:100140005D060008610600080000000000000000D5
:10015000000000000000000000000000000000009F
:10016000000000000000000000000000650600081C
:100170006906000800000000000000000000000008
:10018000000000006D0600080000000000000000F4
:10019000000000000000000000000000000000005F
:1001A000000000000000000071060008750600084D
:1001B000790600087D06000881060008000000009E
:1001C000000000008506000800000000000000009C
:1001D000890600088D060008010007D4012200F0FE
:1001E0001F01874B8A40400943F82020704780B5A3
:1001F00000F09AF800F0A8F800F0CCF862B600F031
:1002000089F8FEE77F4908684008400008607E4999
:100210004878401E8041C00F4870E4E07B497C4A2A
:1002200008684008400008607749C86848B94868CD
:100230008860536943F001035361106840F0010086
:1002400015E0022814D1087828B1136843F001039F
:100250001360002000E0012000234B608B600870D9
:10026000536943F004035361106840F004001060C8
:10027000CA68022A01D1087820B94878401E804116
:10028000C00F48704FF0FF30C860704710B560482D
:100290005D4C0268520852000260416941F0010160
:1002A0004161617800F032F8A068401C6060002174
:1002B0005848E16000F02FF810BD70B5544C564D11
:1002C0002168514E21F004012160606940F0040072
:1002D00060612968490849002960686A000C0004C7
:1002E0006862717800F012F802213078F16050B93C
:1002F000216849084900216000F068F8A862286870
:1003000040F00100286000F005F870BD481E8041F3
:10031000C00F68E03F48026952085200026101685C
:1003200041F00101016070473C49086840F002005B
:1003300008603B48026822F440320260016841F4E0
:1003400080310160704700003448026842F00102C9
:100350000260416941F0010141614FF0904108683C
:1003600020F0330008602F492F480A6802400A60D5
:100370000B6827480B60026842F005020260816842
:1003800041F00501816040221D4802604FF48071F8
:100390000160704710B52549086840F00600086004
:1003A00041F2873422480462012101601D20FFF7D9
:1003B00013FF1848C46240F65F1181620122C260D7
:1003C000082101601E20BDE8104005E70E4949687C
:1003D000012943F67F6005DB4FF47A504900B0FBFA
:1003E000F1F0401E7047134920B10A6842F4807250
:1003F0000A607047086820F4807008607047000049
:1004000000E100E01004004000000020100800405F
:100410000004014000080040000400404C1002406D
:100420000004004808000140F8F8FFFF581002409F
:100430000C0400401404004810B5034A7A44083202
:10044000024C7C44A41D03E068000000780000001A
:1004500004E01168101D114488470246A242F8D1F9
:1004600010BD0EE002684368024408305FEAC37CB6
:1004700044BF4B445B1E52F804CB43F804CB091F26
:10048000F9D150F8041B0029ECD170474EF6885181
:10049000CEF20001086840F470000860BFF34F8F8F
:1004A000BFF36F8F4FF00170E1EE100A704700004C
:1004B000B3FFFFFF1C0000007000000000000020E0
:1004C0000000000000F00DF8002801D0FFF7B4FF95
:1004D000AFF300800020AFF30080FFF788FE00F04C
:1004E00002F80120704700F001B8000007463846C6
:1004F00000F002F8FBE7000080B5AFF30080024A8D
:1005000011001820ABBEFBE726000200054801469B
:1005100003B4684680F30988AFF30080FFF7B6FFA5
:10052000FFF7D0FFA5EDF5FE000100000000000080
:1005300000000000FFFFFFFF0000000010000000AF
:1005400001000000FEE7FEE7FEE7FEE7FEE770477A
:100550007047704700F000B8024A1168906841186F
:100560001160704710000020014880470148004793
:10057000790500080D0500080249086840F470007C
:100580000860704788ED00E0FFF7FEBFFFF7FEBF91
:10059000FFF7FEBFFFF7FEBFFFF7FEBFFFF7FEBF8F
:1005A000FFF7FEBFFFF7FEBFFFF7FEBFFFF7FEBF7F
:1005B000FFF7FEBFFFF7FEBFFFF7FEBFFFF7FEBF6F
:1005C000FFF7FEBFFFF7FEBFFFF7FEBFFFF7FEBF5F
:1005D000FFF7FEBFFFF7FEBFFFF7FEBFFFF7FEBF4F
:1005E000FFF7FEBFFFF7FEBFFFF7FEBFFFF7FEBF3F
:1005F000FFF7FEBFFFF7FEBFFFF7FEBFFFF7FEBF2F
:10060000FFF7FEBFFFF7FEBFFFF7FEBFFFF7FEBF1E
:10061000FFF7FEBFFFF7FEBFFFF7FEBFFFF7FEBF0E
:10062000FFF7FEBFFFF7FEBFFFF7FEBFFFF7FEBFFE
:10063000FFF7FEBFFFF7FEBFFFF7FEBFFFF7FEBFEE
:10064000FFF7FEBFFFF7FEBFFFF7FEBFFFF7FEBFDE
:10065000FFF7FEBFFFF7FEBFFFF7FEBFFFF7FEBFCE
:10066000FFF7FEBFFFF7FEBFFFF7FEBFFFF7FEBFBE
:10067000FFF7FEBFFFF7FEBFFFF7FEBFFFF7FEBFAE
:10068000FFF7FEBFFFF7FEBFFFF7FEBFFFF7FEBF9E
:040000050800050DDD
:00000001FF
